{
    "contractName": "RiseandFame",
    "abi": [
        {
            "inputs": [],
            "stateMutability": "nonpayable",
            "type": "constructor"
        },
        {
            "anonymous": false,
            "inputs": [
                {
                    "indexed": true,
                    "internalType": "uint256",
                    "name": "itemId",
                    "type": "uint256"
                },
                {
                    "indexed": true,
                    "internalType": "address",
                    "name": "nftContract",
                    "type": "address"
                },
                {
                    "indexed": true,
                    "internalType": "uint256",
                    "name": "tokenId",
                    "type": "uint256"
                },
                {
                    "indexed": false,
                    "internalType": "address",
                    "name": "seller",
                    "type": "address"
                },
                {
                    "indexed": false,
                    "internalType": "address",
                    "name": "owner",
                    "type": "address"
                },
                {
                    "indexed": false,
                    "internalType": "uint256",
                    "name": "price",
                    "type": "uint256"
                },
                {
                    "indexed": false,
                    "internalType": "bool",
                    "name": "sold",
                    "type": "bool"
                },
                {
                    "indexed": false,
                    "internalType": "bool",
                    "name": "cancelled",
                    "type": "bool"
                }
            ],
            "name": "MarketTokenMinted",
            "type": "event"
        },
        {
            "inputs": [
                {
                    "internalType": "uint256",
                    "name": "tokenId",
                    "type": "uint256"
                }
            ],
            "name": "cancelMarketItem",
            "outputs": [],
            "stateMutability": "payable",
            "type": "function"
        },
        {
            "inputs": [
                {
                    "internalType": "address",
                    "name": "nftContract",
                    "type": "address"
                },
                {
                    "internalType": "uint256",
                    "name": "itemId",
                    "type": "uint256"
                }
            ],
            "name": "createMarketSale",
            "outputs": [],
            "stateMutability": "payable",
            "type": "function"
        },
        {
            "inputs": [],
            "name": "fetchItemsCreated",
            "outputs": [
                {
                    "components": [
                        {
                            "internalType": "uint256",
                            "name": "itemId",
                            "type": "uint256"
                        },
                        {
                            "internalType": "address",
                            "name": "nftContract",
                            "type": "address"
                        },
                        {
                            "internalType": "uint256",
                            "name": "tokenId",
                            "type": "uint256"
                        },
                        {
                            "internalType": "address payable",
                            "name": "seller",
                            "type": "address"
                        },
                        {
                            "internalType": "address payable",
                            "name": "owner",
                            "type": "address"
                        },
                        {
                            "internalType": "uint256",
                            "name": "price",
                            "type": "uint256"
                        },
                        {
                            "internalType": "bool",
                            "name": "sold",
                            "type": "bool"
                        },
                        {
                            "internalType": "bool",
                            "name": "cancelled",
                            "type": "bool"
                        }
                    ],
                    "internalType": "struct RiseandFame.MarketToken[]",
                    "name": "",
                    "type": "tuple[]"
                }
            ],
            "stateMutability": "view",
            "type": "function"
        },
        {
            "inputs": [],
            "name": "fetchMarketTokens",
            "outputs": [
                {
                    "components": [
                        {
                            "internalType": "uint256",
                            "name": "itemId",
                            "type": "uint256"
                        },
                        {
                            "internalType": "address",
                            "name": "nftContract",
                            "type": "address"
                        },
                        {
                            "internalType": "uint256",
                            "name": "tokenId",
                            "type": "uint256"
                        },
                        {
                            "internalType": "address payable",
                            "name": "seller",
                            "type": "address"
                        },
                        {
                            "internalType": "address payable",
                            "name": "owner",
                            "type": "address"
                        },
                        {
                            "internalType": "uint256",
                            "name": "price",
                            "type": "uint256"
                        },
                        {
                            "internalType": "bool",
                            "name": "sold",
                            "type": "bool"
                        },
                        {
                            "internalType": "bool",
                            "name": "cancelled",
                            "type": "bool"
                        }
                    ],
                    "internalType": "struct RiseandFame.MarketToken[]",
                    "name": "",
                    "type": "tuple[]"
                }
            ],
            "stateMutability": "view",
            "type": "function"
        },
        {
            "inputs": [],
            "name": "fetchMyNFTs",
            "outputs": [
                {
                    "components": [
                        {
                            "internalType": "uint256",
                            "name": "itemId",
                            "type": "uint256"
                        },
                        {
                            "internalType": "address",
                            "name": "nftContract",
                            "type": "address"
                        },
                        {
                            "internalType": "uint256",
                            "name": "tokenId",
                            "type": "uint256"
                        },
                        {
                            "internalType": "address payable",
                            "name": "seller",
                            "type": "address"
                        },
                        {
                            "internalType": "address payable",
                            "name": "owner",
                            "type": "address"
                        },
                        {
                            "internalType": "uint256",
                            "name": "price",
                            "type": "uint256"
                        },
                        {
                            "internalType": "bool",
                            "name": "sold",
                            "type": "bool"
                        },
                        {
                            "internalType": "bool",
                            "name": "cancelled",
                            "type": "bool"
                        }
                    ],
                    "internalType": "struct RiseandFame.MarketToken[]",
                    "name": "",
                    "type": "tuple[]"
                }
            ],
            "stateMutability": "view",
            "type": "function"
        },
        {
            "inputs": [
                {
                    "internalType": "address",
                    "name": "nftContract",
                    "type": "address"
                },
                {
                    "internalType": "uint256",
                    "name": "tokenId",
                    "type": "uint256"
                },
                {
                    "internalType": "uint256",
                    "name": "price",
                    "type": "uint256"
                }
            ],
            "name": "makeMarketItem",
            "outputs": [],
            "stateMutability": "payable",
            "type": "function"
        },
        {
            "inputs": [
                {
                    "internalType": "uint256",
                    "name": "tokenId",
                    "type": "uint256"
                },
                {
                    "internalType": "uint256",
                    "name": "newprice",
                    "type": "uint256"
                }
            ],
            "name": "updateMarketItemPrice",
            "outputs": [],
            "stateMutability": "payable",
            "type": "function"
        }
    ],
    "bytecode": "60808060405234602b5760015f55600480546001600160a01b03191633179055610c1e90816100308239f35b5f80fdfe60806040526004361015610011575f80fd5b5f5f3560e01c8063202e3740146108015780637a060f5614610633578063a6e22b02146105b4578063ae13a3171461056e578063c23b139e14610366578063c69bdf75146101fd5763f064c32e14610067575f80fd5b346101fa57806003193601126101fa57600154819081805b8281106101b6575061009090610a9c565b9183905b8282106100ad57604051806100a98682610982565b0390f35b600182018083116101a257808652600560205260408620600301546001600160a01b031633146100e3575b509060010190610094565b855260056020526040852054855260056020526040852060ff60066040519261010b84610a31565b8054845260018101546001600160a01b039081166020860152600282015460408601526003820154811660608601526004820154166080850152600581015460a08501520154818116151560c084015260081c16151560e08201526101708286610b1b565b5261017b8185610b1b565b506001810180911161018e5760016100d8565b634e487b7160e01b85526011600452602485fd5b634e487b7160e01b86526011600452602486fd5b600181018082116101a2578552600560205260408520600301546001600160a01b031633146101e8575b60010161007f565b906001810180911161018e57906101e0565b80fd5b50346101fa57806003193601126101fa5760015461022961022060025483610bdb565b60035490610bdb565b906102348392610a9c565b9183905b82821061024d57604051806100a98682610982565b600182018083118061035257818752600560205260408720600401546001600160a01b0316158061032e575b61028a575b50509060010190610238565b6101a257855260056020526040852060ff6006604051926102aa84610a31565b8054845260018101546001600160a01b039081166020860152600282015460408601526003820154811660608601526004820154166080850152600581015460a08501520154818116151560c084015260081c16151560e082015261030f8286610b1b565b5261031a8185610b1b565b506001810180911161018e5760015f61027e565b50508086526005602052604086206003015486906001600160a01b03161515610279565b634e487b7160e01b87526011600452602487fd5b5060403660031901126101fa5761037b610a1b565b6024359061038d600284541415610b43565b6002835581835260056020526005604084200154908284526005602052600260408520015491340361050d57600454348015916001600160a01b0316906003818102918204148317156103525786808093600a82940490828215610504575bf1156104f957838552600560205260408520600301546001600160a01b031690346007818102929183041417156101a25785808080969594600a829504908282156104f0575bf1156104e1576001600160a01b0316803b156104ec576040516323b872dd60e01b8152306004820152336024820152604481019290925282908290606490829084905af180156104e1576104c8575b5081905260056020818152604080852060040180546001600160a01b03191633179055928452528120600601805460ff191660019081179091556002805482019055815580f35b816104d291610a62565b6104dd57815f610481565b5080fd5b6040513d84823e3d90fd5b8280fd5b506108fc610432565b6040513d86823e3d90fd5b506108fc6103ec565b60405162461bcd60e51b815260206004820152603360248201527f506c65617365207375626d6974207468652061736b696e6720707269636520696044820152726e206f7264657220746f20636f6e74696e756560681b6064820152608490fd5b5060403660031901126101fa5760243561058c600283541415610b43565b6002825561059b811515610b8f565b6004358252600560205260056040832001556001815580f35b5060203660031901126101fa576004356105d2600283541415610b43565b6002825580825260056020526006604083200161010061ff0019825416179055815260056020528060066040822082815582600182015582600282015582600382015582600482015582600582015501556001600354016003556001815580f35b5060603660031901126107fd57610648610a1b565b6024359060443561065d60025f541415610b43565b60025f5561066c811515610b8f565b6001805401908160015560405161068281610a31565b8281526001600160a01b039384166020808301828152604080850189815233606087019081525f6080880181815260a089018a815260c08a0183815260e08b018481528d85526005998a90529690932099518a55955160018a018054918e166001600160a01b0319928316179055935160028a01559151600389018054918d16918516919091179055905160048801805491909b16921691909117909855905191840191909155945160069092018054955161ff0090151560081b1692151560ff1661ffff199096169590951791909117909355823b156107fd576040516323b872dd60e01b8152336004820152306024820152604481018590525f8160648183885af180156107f2576107dc575b5060a07fca56974d303c36c15aa5ad02542c2993a0146828d30160759842bf2d8ba2750091604051903382528760208301526040820152866060820152866080820152a46001815580f35b6107e99195505f90610a62565b5f9360a0610791565b6040513d5f823e3d90fd5b5f80fd5b346107fd575f3660031901126107fd576001545f9081805b82811061093c575061082a90610a9c565b905f5b81811061084257604051806100a98582610982565b60018101808211610928575f818152600560205260409020600401546001600160a01b03163314610877575b5060010161082d565b5f949194505f52600560205260405f20545f52600560205260405f2060ff6006604051926108a484610a31565b8054845260018101546001600160a01b039081166020860152600282015460408601526003820154811660608601526004820154166080850152600581015460a08501520154818116151560c084015260081c16151560e08201526109098285610b1b565b526109148184610b1b565b50600181018091116109285792600161086e565b634e487b7160e01b5f52601160045260245ffd5b60018101808211610928575f908152600560205260409020600401546001600160a01b03163314610970575b600101610819565b90600181018091116109285790610968565b60206040818301928281528451809452019201905f5b8181106109a55750505090565b8251805185526020818101516001600160a01b0390811682880152604080840151908801526060808401518216908801526080808401519091169087015260a0808301519087015260c08083015115159087015260e0918201511515918601919091526101009094019390920191600101610998565b600435906001600160a01b03821682036107fd57565b610100810190811067ffffffffffffffff821117610a4e57604052565b634e487b7160e01b5f52604160045260245ffd5b90601f8019910116810190811067ffffffffffffffff821117610a4e57604052565b67ffffffffffffffff8111610a4e5760051b60200190565b90610aa682610a84565b610ab36040519182610a62565b8281528092610ac4601f1991610a84565b01905f5b828110610ad457505050565b602090604051610ae381610a31565b5f81525f838201525f60408201525f60608201525f60808201525f60a08201525f60c08201525f60e082015282828501015201610ac8565b8051821015610b2f5760209160051b010190565b634e487b7160e01b5f52603260045260245ffd5b15610b4a57565b60405162461bcd60e51b815260206004820152601f60248201527f5265656e7472616e637947756172643a207265656e7472616e742063616c6c006044820152606490fd5b15610b9657565b60405162461bcd60e51b815260206004820152601e60248201527f5072696365206d757374206265206174206c65617374206f6e652077656900006044820152606490fd5b919082039182116109285756fea2646970667358221220329e827c9baa0e45090125abd58716e9d7d5cd316ce5e1f976a0395fa653361f64736f6c634300081c0033",
    "sourcePath": "c:/Users/Administrator/Desktop/DEV/NFT_DEV_LATEST/contracts/RiseandFame.sol",
    "compiler": {
        "name": "solc",
        "version": "0.8.28+commit.7893614a"
    },
    "functionHashes": {
        "cancelMarketItem(uint256)": "a6e22b02",
        "createMarketSale(address,uint256)": "c23b139e",
        "fetchItemsCreated()": "f064c32e",
        "fetchMarketTokens()": "c69bdf75",
        "fetchMyNFTs()": "202e3740",
        "makeMarketItem(address,uint256,uint256)": "7a060f56",
        "updateMarketItemPrice(uint256,uint256)": "ae13a317"
    },
    "gasEstimates": {
        "creation": {
            "codeDepositCost": "620400",
            "executionCost": "46998",
            "totalCost": "667398"
        },
        "external": {
            "cancelMarketItem(uint256)": "130171",
            "createMarketSale(address,uint256)": "infinite",
            "fetchItemsCreated()": "infinite",
            "fetchMarketTokens()": "infinite",
            "fetchMyNFTs()": "infinite",
            "makeMarketItem(address,uint256,uint256)": "infinite",
            "updateMarketItemPrice(uint256,uint256)": "68774"
        }
    }
}