{
  "_format": "hh-sol-artifact-1",
  "contractName": "RiseandFame",
  "sourceName": "contracts/RiseandFame.sol",
  "abi": [
    {
      "inputs": [],
      "stateMutability": "nonpayable",
      "type": "constructor"
    },
    {
      "anonymous": false,
      "inputs": [
        {
          "indexed": true,
          "internalType": "uint256",
          "name": "itemId",
          "type": "uint256"
        },
        {
          "indexed": true,
          "internalType": "address",
          "name": "nftContract",
          "type": "address"
        },
        {
          "indexed": true,
          "internalType": "uint256",
          "name": "tokenId",
          "type": "uint256"
        },
        {
          "indexed": false,
          "internalType": "address",
          "name": "seller",
          "type": "address"
        },
        {
          "indexed": false,
          "internalType": "address",
          "name": "owner",
          "type": "address"
        },
        {
          "indexed": false,
          "internalType": "uint256",
          "name": "price",
          "type": "uint256"
        },
        {
          "indexed": false,
          "internalType": "bool",
          "name": "sold",
          "type": "bool"
        },
        {
          "indexed": false,
          "internalType": "bool",
          "name": "cancelled",
          "type": "bool"
        }
      ],
      "name": "MarketTokenMinted",
      "type": "event"
    },
    {
      "inputs": [
        {
          "internalType": "uint256",
          "name": "tokenId",
          "type": "uint256"
        }
      ],
      "name": "cancelMarketItem",
      "outputs": [],
      "stateMutability": "payable",
      "type": "function"
    },
    {
      "inputs": [
        {
          "internalType": "address",
          "name": "nftContract",
          "type": "address"
        },
        {
          "internalType": "uint256",
          "name": "itemId",
          "type": "uint256"
        }
      ],
      "name": "createMarketSale",
      "outputs": [],
      "stateMutability": "payable",
      "type": "function"
    },
    {
      "inputs": [
        {
          "internalType": "address",
          "name": "nftContract",
          "type": "address"
        },
        {
          "internalType": "uint256",
          "name": "itemId",
          "type": "uint256"
        }
      ],
      "name": "createMarketSaleTen",
      "outputs": [],
      "stateMutability": "payable",
      "type": "function"
    },
    {
      "inputs": [
        {
          "internalType": "address",
          "name": "nftContract",
          "type": "address"
        },
        {
          "internalType": "uint256",
          "name": "itemId",
          "type": "uint256"
        }
      ],
      "name": "createMarketSaleTwentyfive",
      "outputs": [],
      "stateMutability": "payable",
      "type": "function"
    },
    {
      "inputs": [],
      "name": "fetchItemsCreated",
      "outputs": [
        {
          "components": [
            {
              "internalType": "uint256",
              "name": "itemId",
              "type": "uint256"
            },
            {
              "internalType": "address",
              "name": "nftContract",
              "type": "address"
            },
            {
              "internalType": "uint256",
              "name": "tokenId",
              "type": "uint256"
            },
            {
              "internalType": "address payable",
              "name": "seller",
              "type": "address"
            },
            {
              "internalType": "address payable",
              "name": "owner",
              "type": "address"
            },
            {
              "internalType": "uint256",
              "name": "price",
              "type": "uint256"
            },
            {
              "internalType": "bool",
              "name": "sold",
              "type": "bool"
            },
            {
              "internalType": "bool",
              "name": "cancelled",
              "type": "bool"
            }
          ],
          "internalType": "struct RiseandFame.MarketToken[]",
          "name": "",
          "type": "tuple[]"
        }
      ],
      "stateMutability": "view",
      "type": "function"
    },
    {
      "inputs": [],
      "name": "fetchMarketTokens",
      "outputs": [
        {
          "components": [
            {
              "internalType": "uint256",
              "name": "itemId",
              "type": "uint256"
            },
            {
              "internalType": "address",
              "name": "nftContract",
              "type": "address"
            },
            {
              "internalType": "uint256",
              "name": "tokenId",
              "type": "uint256"
            },
            {
              "internalType": "address payable",
              "name": "seller",
              "type": "address"
            },
            {
              "internalType": "address payable",
              "name": "owner",
              "type": "address"
            },
            {
              "internalType": "uint256",
              "name": "price",
              "type": "uint256"
            },
            {
              "internalType": "bool",
              "name": "sold",
              "type": "bool"
            },
            {
              "internalType": "bool",
              "name": "cancelled",
              "type": "bool"
            }
          ],
          "internalType": "struct RiseandFame.MarketToken[]",
          "name": "",
          "type": "tuple[]"
        }
      ],
      "stateMutability": "view",
      "type": "function"
    },
    {
      "inputs": [],
      "name": "fetchMyNFTs",
      "outputs": [
        {
          "components": [
            {
              "internalType": "uint256",
              "name": "itemId",
              "type": "uint256"
            },
            {
              "internalType": "address",
              "name": "nftContract",
              "type": "address"
            },
            {
              "internalType": "uint256",
              "name": "tokenId",
              "type": "uint256"
            },
            {
              "internalType": "address payable",
              "name": "seller",
              "type": "address"
            },
            {
              "internalType": "address payable",
              "name": "owner",
              "type": "address"
            },
            {
              "internalType": "uint256",
              "name": "price",
              "type": "uint256"
            },
            {
              "internalType": "bool",
              "name": "sold",
              "type": "bool"
            },
            {
              "internalType": "bool",
              "name": "cancelled",
              "type": "bool"
            }
          ],
          "internalType": "struct RiseandFame.MarketToken[]",
          "name": "",
          "type": "tuple[]"
        }
      ],
      "stateMutability": "view",
      "type": "function"
    },
    {
      "inputs": [
        {
          "internalType": "address",
          "name": "nftContract",
          "type": "address"
        },
        {
          "internalType": "uint256",
          "name": "tokenId",
          "type": "uint256"
        },
        {
          "internalType": "uint256",
          "name": "price",
          "type": "uint256"
        }
      ],
      "name": "makeMarketItem",
      "outputs": [],
      "stateMutability": "payable",
      "type": "function"
    },
    {
      "inputs": [
        {
          "internalType": "uint256",
          "name": "tokenId",
          "type": "uint256"
        },
        {
          "internalType": "uint256",
          "name": "newprice",
          "type": "uint256"
        }
      ],
      "name": "updateMarketItemPrice",
      "outputs": [],
      "stateMutability": "payable",
      "type": "function"
    }
  ],
  "bytecode": "0x608060405234801561001057600080fd5b506001600055600480546001600160a01b03191633179055611171806100376000396000f3fe6080604052600436106100865760003560e01c8063c23b139e11610059578063c23b139e146100f1578063c482693c14610104578063c69bdf7514610117578063d2adf2b71461012c578063f064c32e1461013f57610086565b8063202e37401461008b5780637a060f56146100b6578063a6e22b02146100cb578063ae13a317146100de575b600080fd5b34801561009757600080fd5b506100a0610154565b6040516100ad9190610f28565b60405180910390f35b6100c96100c4366004610e60565b610369565b005b6100c96100d9366004610e92565b610558565b6100c96100ec366004610eaa565b6105f9565b6100c96100ff366004610e37565b610656565b6100c9610112366004610e37565b610809565b34801561012357600080fd5b506100a06108e2565b6100c961013a366004610e37565b610ae6565b34801561014b57600080fd5b506100a0610bbf565b606060006101626001610dcb565b905060008060005b838110156101c557336005600061018284600161109c565b81526020810191909152604001600020600401546001600160a01b031614156101b3576101b060018461109c565b92505b806101bd8161110a565b91505061016a565b5060008267ffffffffffffffff8111156101ef57634e487b7160e01b600052604160045260246000fd5b60405190808252806020026020018201604052801561022857816020015b610215610ddc565b81526020019060019003908161020d5790505b50905060005b8481101561036057336005600061024684600161109c565b81526020810191909152604001600020600401546001600160a01b0316141561034e57600060058161027984600161109c565b81526020808201929092526040908101600090812054808252600580855291839020835161010080820186528254825260018301546001600160a01b0390811697830197909752600283015495820195909552600382015486166060820152600482015490951660808601529182015460a0850152600682015460ff808216151560c0870152939004909216151560e08401528551919350919085908790811061033357634e487b7160e01b600052603260045260246000fd5b602090810291909101015261034960018661109c565b945050505b806103588161110a565b91505061022e565b50935050505090565b600260005414156103955760405162461bcd60e51b815260040161038c90611065565b60405180910390fd5b6002600055806103b75760405162461bcd60e51b815260040161038c90610fdb565b6103c16001610dd3565b60006103cd6001610dcb565b6040805161010080820183528382526001600160a01b0388811660208085018281528587018b81523360608801818152600060808a0181815260a08b018f815260c08c0183815260e08d018481528f85526005998a9052938e90209c518d55965160018d0180546001600160a01b0319908116928d16929092179055955160028d0155925160038c0180548716918b16919091179055516004808c01805490961691909916179093555193880193909355905160069096018054915160ff199092169615159690961761ff0019169015159094029390931790935592516323b872dd60e01b815293945090926323b872dd926104ce92913091899101610ed1565b600060405180830381600087803b1580156104e857600080fd5b505af11580156104fc573d6000803e3d6000fd5b5050505082846001600160a01b0316827fca56974d303c36c15aa5ad02542c2993a0146828d30160759842bf2d8ba2750033600087600080604051610545959493929190610ef5565b60405180910390a4505060016000555050565b6002600054141561057b5760405162461bcd60e51b815260040161038c90611065565b6002600081815582815260056020819052604082206006810180548483556001830180546001600160a01b03199081169091559583018590556003808401805488169055600484018054909716909655919092019290925561ffff1961ff0019909216610100179190911690556105f190610dd3565b506001600055565b6002600054141561061c5760405162461bcd60e51b815260040161038c90611065565b60026000558061063e5760405162461bcd60e51b815260040161038c90610fdb565b60009182526005602081905260408320015560019055565b600260005414156106795760405162461bcd60e51b815260040161038c90611065565b60026000818155828152600560208190526040909120908101549101543482146106b55760405162461bcd60e51b815260040161038c90611012565b6004546001600160a01b03166108fc60646106d134600f6110d4565b6106db91906110b4565b6040518115909202916000818181858888f19350505050158015610703573d6000803e3d6000fd5b506000838152600560205260409020600301546001600160a01b03166108fc606461072f3460556110d4565b61073991906110b4565b6040518115909202916000818181858888f19350505050158015610761573d6000803e3d6000fd5b506040516323b872dd60e01b81526001600160a01b038516906323b872dd9061079290309033908690600401610ed1565b600060405180830381600087803b1580156107ac57600080fd5b505af11580156107c0573d6000803e3d6000fd5b50505060008481526005602052604090206004810180546001600160a01b03191633179055600601805460ff19166001179055506107fe6002610dd3565b505060016000555050565b6002600054141561082c5760405162461bcd60e51b815260040161038c90611065565b60026000818155828152600560208190526040909120908101549101543482146108685760405162461bcd60e51b815260040161038c90611012565b6004546001600160a01b03166108fc606461088434600a6110d4565b61088e91906110b4565b6040518115909202916000818181858888f193505050501580156108b6573d6000803e3d6000fd5b506000838152600560205260409020600301546001600160a01b03166108fc606461072f34605a6110d4565b606060006108f06001610dcb565b905060006108fe6003610dcb565b6109086002610dcb565b6109126001610dcb565b61091c91906110f3565b61092691906110f3565b90506000808267ffffffffffffffff81111561095257634e487b7160e01b600052604160045260246000fd5b60405190808252806020026020018201604052801561098b57816020015b610978610ddc565b8152602001906001900390816109705790505b50905060005b848110156103605760006005816109a984600161109c565b81526020810191909152604001600020600401546001600160a01b03161480156109fe575060006005816109de84600161109c565b81526020810191909152604001600020600301546001600160a01b031614155b15610ad4576000610a1082600161109c565b600081815260056020818152604092839020835161010080820186528254825260018301546001600160a01b0390811694830194909452600283015495820195909552600382015483166060820152600482015490921660808301529182015460a0820152600682015460ff808216151560c0840152939004909216151560e0830152855192935091859087908110610ab957634e487b7160e01b600052603260045260246000fd5b6020908102919091010152610acf60018661109c565b945050505b80610ade8161110a565b915050610991565b60026000541415610b095760405162461bcd60e51b815260040161038c90611065565b6002600081815582815260056020819052604090912090810154910154348214610b455760405162461bcd60e51b815260040161038c90611012565b6004546001600160a01b03166108fc6064610b613460196110d4565b610b6b91906110b4565b6040518115909202916000818181858888f19350505050158015610b93573d6000803e3d6000fd5b506000838152600560205260409020600301546001600160a01b03166108fc606461072f34604b6110d4565b60606000610bcd6001610dcb565b905060008060005b83811015610c30573360056000610bed84600161109c565b81526020810191909152604001600020600301546001600160a01b03161415610c1e57610c1b60018461109c565b92505b80610c288161110a565b915050610bd5565b5060008267ffffffffffffffff811115610c5a57634e487b7160e01b600052604160045260246000fd5b604051908082528060200260200182016040528015610c9357816020015b610c80610ddc565b815260200190600190039081610c785790505b50905060005b84811015610360573360056000610cb184600161109c565b81526020810191909152604001600020600301546001600160a01b03161415610db9576000600581610ce484600161109c565b81526020808201929092526040908101600090812054808252600580855291839020835161010080820186528254825260018301546001600160a01b0390811697830197909752600283015495820195909552600382015486166060820152600482015490951660808601529182015460a0850152600682015460ff808216151560c0870152939004909216151560e084015285519193509190859087908110610d9e57634e487b7160e01b600052603260045260246000fd5b6020908102919091010152610db460018661109c565b945050505b80610dc38161110a565b915050610c99565b80545b919050565b80546001019055565b6040805161010081018252600080825260208201819052918101829052606081018290526080810182905260a0810182905260c0810182905260e081019190915290565b80356001600160a01b0381168114610dce57600080fd5b60008060408385031215610e49578182fd5b610e5283610e20565b946020939093013593505050565b600080600060608486031215610e74578081fd5b610e7d84610e20565b95602085013595506040909401359392505050565b600060208284031215610ea3578081fd5b5035919050565b60008060408385031215610ebc578182fd5b50508035926020909101359150565b15159052565b6001600160a01b039384168152919092166020820152604081019190915260600190565b6001600160a01b039586168152939094166020840152604083019190915215156060820152901515608082015260a00190565b602080825282518282018190526000919060409081850190868401855b82811015610fce57815180518552868101516001600160a01b039081168887015286820151878701526060808301518216908701526080808301519091169086015260a0808201519086015260c080820151610fa382880182610ecb565b505060e09081015190610fb886820183610ecb565b5050610100939093019290850190600101610f45565b5091979650505050505050565b6020808252601e908201527f5072696365206d757374206265206174206c65617374206f6e65207765690000604082015260600190565b60208082526033908201527f506c65617365207375626d6974207468652061736b696e6720707269636520696040820152726e206f7264657220746f20636f6e74696e756560681b606082015260800190565b6020808252601f908201527f5265656e7472616e637947756172643a207265656e7472616e742063616c6c00604082015260600190565b600082198211156110af576110af611125565b500190565b6000826110cf57634e487b7160e01b81526012600452602481fd5b500490565b60008160001904831182151516156110ee576110ee611125565b500290565b60008282101561110557611105611125565b500390565b600060001982141561111e5761111e611125565b5060010190565b634e487b7160e01b600052601160045260246000fdfea264697066735822122058a0e721be8dac63e5ea9c7b945373e949ccbd2a2f75322711f6a72815fe034564736f6c63430008000033",
  "linkReferences": {},
  "deployedLinkReferences": {}
}